:100000000C9446000C9465000C9465000C946500FB
:100010000C9465000C9465000C9465000C946500CC
:100020000C9465000C9465000C9465000C946500BC
:100030000C9465000C94A0000C9465000C94650071
:100040000C9465000C9465000C9465000C9465009C
:100050000C9465000C9465000C9465000C9465008C
:100060000C9465000C9465000C9465000C9465007C
:100070000C9465000C9465000C9465000C9465006C
:100080000C9465000C9465000C94650011241FBE4F
:10009000CFEFD0E4DEBFCDBF11E0A0E0B1E0EEE2F3
:1000A000F2E000E00BBF02C007900D92A231B10751
:1000B000D9F711E0A2E1B1E001C01D92A731B1076B
:1000C000E1F70E9400010C9415010C940000CF93FD
:1000D000C82F8A3019F48DE00E9467009091C0000B
:1000E00095FFFCCFC093C60080E090E0CF910895CB
:1000F0008BE0809381008DE790E09093890080935E
:1001000088001092850010928400809100019091E7
:100110000101A0910201B09103018093120190931B
:100120001301A0931401B09315018FB780688FBF9E
:10013000089510928100089581E08093160108953A
:100140001F920F920FB60F9211240BB60F922F939E
:100150003F934F935F936F937F938F939F93AF934F
:10016000BF93EF93FF938091120190911301A0919F
:100170001401B09115010197A109B10980931201F1
:1001800090931301A0931401B0931501892B8A2B2E
:100190008B2B91F40E949C008091000190910101B1
:1001A000A0910201B0910301809312019093130179
:1001B000A0931401B0931501FF91EF91BF91AF91FE
:1001C0009F918F917F916F915F914F913F912F916F
:1001D0000F900BBE0F900FBE0F901F90189560935D
:1001E00000017093010180930201909303016093D9
:1001F00012017093130180931401909315010895D7
:100200008FEF84B915B868EE73E080E090E00E944B
:10021000EF000E94780090E0909595B980911601CA
:0E0220008823E1F310921601F7CFF894FFCF78
:10022E000100000000000002000000006700000056
:02023E000000BE
:00000001FF
